2004-11-252007-05-312004-11-252007-03-020001-01-011938-06-2200000000000000260000000000000000000000000000003043512000  O  FI2007-05-31                              213005500758205024794              UNICREDITCARD MASTERCARD CLASSIC                                                                                  Borghini                        Edgardo                         SCMCPBAMS   VIA ROSMINI, 16                 MJMDG UB JTVJV                  BGITA0358673114                                                      00000000103512343385724131                                                      IT61W010200284000004000317918882                    BRGDRD38H22D612F                                                                                                                  550075                                                                                                                                                                                                                                                                                                                                                                                                                                                                                                                                                                                                                                                                                                                                                                                                                                                                                                                                                                                  
2007-02-282010-02-282007-02-152009-11-302007-10-111954-11-0700000000000000500000000000000000000000000000003040417000  O  EN2010-02-28                              211005526517223133353              UNICREDITCARD MAST.BUSINESS ETICA                 9qs53h.gfgu98vh4.3t5uyasz@unicreditgroup.eu                     Aiello                          Italia                          MCMCPKBMS   VICO GIGANTI 67                 DHHG                            ENITA3483428185                                                      0000000046803766                                                                IT33Y010201680000003003437389536                    LLATLI54S07G471L  0954422768                                                                                                      552651                                                                                                                                                                                                                                                                                                                                                                                                                                                                                                                                                                                                                                                                                                                                                                                                                                                                                                                                                                                  
2012-12-042016-02-012003-02-032015-11-022012-12-041950-05-0300000000000001350000000000000000000650000000021137032000Y R  BL2016-01-3120081211370327032             020956773552113703270321           MCHIP MAESTRO FIRST_                              uj879fxr.2y8buojhb.o9vd79@unicreditgroup.eu                     Cheikh Talibouya                Arcangela                       MBEFRST     VIA PICCINNI, 44                PBVRXXQ                         BLITA04371646355                                                     0000000000206860+393332172839                                                   IT52U020086115000000405220819868                    CHKRNG50E03I774X                                                                                                                  677355                                                                                                                                                                                                                                                                                                                                                                                                                                                                                                                                                                                                                                                                                                                                                                                                                                                                                                                                                                                  
2014-01-082017-12-152014-01-082017-11-022014-01-101953-09-2900000000000002000000000000000000000000000000011956658000  O  TV2018-01-31                              074564594898528769434              VISA INFINITE                                     mbmjm7.n1fqbjwr.0wk2s@unicreditgroup.eu                         Passitto                        Iva                             MCVIN24PR   VICOLO TRE MARCHETTI, 80        JHVTGTIT                        TVITA04237187953                                                     0000000000284744+393484873377                                                   IT29H020086162800001010794072812                    PSSVIA53P29H686E  04235353623                                                                                                     459489                                                                                                                                                                                                                                                                                                                                                                                                                                                                                                                                                                                                                                                                                                                                                                                                                                                                                                                                                                                  
2010-09-272013-09-022010-09-272013-07-022010-10-061953-09-2900000000000000300000000000000000000000000000007146381000  O  TV2013-09-30                              040774018208057940182              UCC CLASSIC  E  VISA                              mbmjm7.n1fqbjwr.0wk2s@unicreditgroup.eu                         Passitto                        Iva                             MCVCLENPR   VICOLO TRE MARCHETTI, 80        JHVTGTIT                        TVITA04237187953                                                     0000000000284744+393484873377                                                   IT11R020088832000001010794072812                    PSSVIA53P29H686E  04235353623                                                                                                     401820                                                                                                                                                                                                                                                                                                                                                                                                                                                                                                                                                                                                                                                                                                                                                                                                                                                                                                                                                                                  
2017-04-032017-04-072017-04-072020-07-022017-04-071955-04-2900000000000000900000000000000000000400000000017566102000  O  VI2020-09-30                              020574877162435588470              CARTA DI DEBITO MYPAY VPAY STOCK                                                                                  Bragioto                        Cataldo                         CDVVPAYBS   VIA DEL VIMINALE, 33            KQQLIWS                         VIITA+3904449125993                                                  0000000000705721+393408735969                                                   IT22L020081182000000190731723578                    BRGCLD55D69I451L                                                                                                                  487716                                                                                                                                                                                                                                                                                                                                                                                                                                                                                                                                                                                                                                                                                                                                                                                                                                                                                                                                                                                  
2017-06-012018-12-072017-06-012020-04-012017-06-141945-12-0300000000000000900000000000000000000400000000017866036000Y O  VR2020-06-30                              020014877168896573729              CARTA DI DEBITO MYPAY VPAY                                                                                        Pascucci                        Letterio                        CDVVPAYBN   VIA ALESSANDRO FARNESE, 54      SBJCDJ                          VRITA0453986121                                                      0000000001773404+393207873978                                                   IT75D020081177000000401522475551                    PSCLTR45T03G919W                                                                                                                  487716                                                                                                                                                                                                                                                                                                                                                                                                                                                                                                                                                                                                                                                                                                                                                                                                                                                                                                                                                                                  
2010-11-122013-10-222010-11-122013-09-010001-01-011969-11-0500000000000000000000000000000000001000000000007187197000Y O  VR2013-11-30                              020355264304147694554              GENIUS CARD NOMINATIVA                            0ijnn3a.1a870471c.0kpxpa2@unicreditgroup.eu                     Trombino                        Arnaldo                         MPBPMGNEC   VIA CAMPI FLEGREI, 25           TDVYOQRSJ BAF XMVAJ             VRITA                                                                0000000001853512+393491912156                                                                              21801                    TRMRLD69S45A710P                                                                                                                  526430                                                                                                                                                                                                                                                                                                                                                                                                                                                                                                                                                                                                                                                                                                                                                                                                                                                                                                                                                                                  
2019-02-222019-02-222019-02-220001-01-012019-02-221974-03-0700000000000000700000000000000000000400000000054098242000  O  VR0001-01-0120081540982428242             0201220081540982428242             LIBRETTO                                          mgy3bkx98.turh4zd.mgimz40@unicreditgroup.eu                     Greece                          Quadrato                        LL LIBR     VIA GIOVANNI AMENDOLA, 88       QNMHCNLL                        VRITA                                                                0000000004020996+393282613737                                                   IT38E020085929100001054528841868                    GRCQRT74C47A242L                                                                                                                  20081                                                                                                                                                                                                                                                                                                                                                                                                                                                                                                                                                                                                                                                                                                                                                                                                                                                                                                                                                                                   
2014-07-072014-07-122014-07-032019-05-022014-07-121941-05-1700000000000000250000000000000000000200000000012510584000  O  BO2019-07-31                              033015256109054781785              UCC FLEXIA CLASSIC MC                             slts4sqi03.hpcvj7xwdm.t9fwi@unicreditgroup.eu                   Satta                           Algiso                          MCMCLEVPR   VIA LORETO, 78                  PAPKCTS                         BOITA0518285618                                                      0000000010127634+393333445392                                                   IT19L020080245100001100203192571                    STTLGS41E17A546C                                                                                                                  525610                                                                                                                                                                                                                                                                                                                                                                                                                                                                                                                                                                                                                                                                                                                                                                                                                                                                                                                                                                                  
2011-04-272012-06-272011-04-272014-01-302011-06-101970-06-0500000000000000500000000000000000000000000000010098378222  O  PN2014-04-30                              038425526608881275527              MASTERCARD BUSINESS PARTNER                                                                                       Tarozzi                         Augusta                         MCMBUREVO   VIA TASSO, 2/P                  IZZWGVC                         PNITA                                                                00000000129527283937141518                                                      IT53H020086489000000413566070849                    TRZGST70H05G846A                                                                                                                  552660                                                                                                                                                                                                                                                                                                                                                                                                                                                                                                                                                                                                                                                                                                                                                                                                                                                                                                                                                                                  
2011-07-112014-06-272011-07-112014-05-022011-08-221960-08-0600000000000000500000000000000000000000000000010249730000  O  MI2014-07-31                              002224063908013066774              UCC FIRST VISA DIPENDENTI                         cqiui.a096c.ensbuo6g@unicreditgroup.eu                          Errahmani                       Affiano                         MCVEMFRSN   PIAZZETTA CONCORDIA, 90         JTHZZG                          MIITA021187414                                                       0000000013165244+393355986888                                                   IT44L020080162200000038961852573                    RRHFFN60M06M065XD 024636483                                                                                                       406390                                                                                                                                                                                                                                                                                                                                                                                                                                                                                                                                                                                                                                                                                                                                                                                                                                                                                                                                                                                  
2012-10-012015-08-032012-08-022015-07-022012-09-121976-01-1600000000000000070000000000000000000000000000011130269000  O  MO2015-09-30                              030015256108361765457              UCC CLASSIC MC EXSI                               xa85tu7qml.whmirv.x7slg@unicreditgroup.eu                       Cirillo                         Viviana                         MCMC4SIAF   VIA DI SANTA MELANIA, 08        UKCEJCZHR                       MOITA0597987852                                                      0000000016121915+393352478952                                                   IT50O020086701500000031612992815                    CRLVVN76A56G263ID 0597987852                                                                                                      525610                                                                                                                                                                                                                                                                                                                                                                                                                                                                                                                                                                                                                                                                                                                                                                                                                                                                                                                                                                                  
2011-04-272012-04-122011-04-272014-01-302011-05-061966-10-1200000000000000500000000000000000000000000000010098084261  O  MI2014-04-30                              030894273808787952132              VISA BUSINESS                                     pvtcbmxeku.bi9yzthyl.bo5eq@unicreditgroup.eu                    Soldati                         Irene                           MCVBUCLAS   PIAZZA BOVIO, 02                HDOCFYL AMCZM                   VAITA                                                                0000000019491147+393358647772                                                   IT83F020080176000000301047812895                    SLDRNI66R12D612E                                                                                                                  427380                                                                                                                                                                                                                                                                                                                                                                                                                                                                                                                                                                                                                                                                                                                                                                                                                                                                                                                                                                                  
0001-01-010001-01-012020-02-262024-11-300001-01-011969-10-2600000000000000500000000000000000000200000000021137032000Y S  MI2025-02-28                              179015425492375967945              Carta World Elite New                             3si3bih8t.skwe7wk.a9nl6@unicreditgroup.eu                       Rebeccato                       Ugo                             MCMCLNYPR   VIA LONGHENA 2                  MELEGNANO                       MIITA                                                                0000000022136266+393357464620                                                   IT40N020080950000004201390920077                    RBCGUO69R66A819O                                                                                                                  542549                                                                                                                                                                                                                                                                                                                                                                                                                                                                                                                                                                                                                                                                                                                                                                                                                                                                                                                                                                                  
2012-03-022015-03-042012-03-022014-12-310001-01-01          00000000000000000000000000000000001000000000010752731000Y O  RE2015-03-31                              015925264304747696298              GENIUS CARD NOMINATIVA                                                                                                                                                            MPBPMGNOM                                                                                                                                        0000000039597762                                                                                           00000                                                                                                                                                      526430                                                                                                                                                                                                                                                                                                                                                                                                                                                                                                                                                                                                                                                                                                                                                                                                                                                                                                                                                                                  
0001-01-010001-01-012019-12-022024-10-020001-01-011961-09-1600000000000000200000000000000000000200000000021136511000  S  MI2024-12-31                              179015425493381598047              Carta World Elite New                             8lnwcn0gqt.6lj05h5z.r8goysz1@unicreditgroup.eu                  Moschetti                       Lino                            MCMCLNYPR   VIA PARTENOPE, 22               RHO                             MIITA000062914995                                                    0000000041087864+393357464620                                                   IT95H020080950000004200569720017                    MSCLNI61P16F107H                                                                                                                  542549                                                                                                                                                                                                                                                                                                                                                                                                                                                                                                                                                                                                                                                                                                                                                                                                                                                                                                                                                                                  
2014-04-152017-04-132014-04-152017-01-302014-04-241961-04-1000000000000000300000000000000000000300000000012299188000  O  PA2017-04-30                              221995422169456132465              UCC FLEXIA GOLD MC                                4gpobd470p.30nfxoqt.6xyfo@unicreditgroup.eu                     Bardi                           Edgardo                         MCMGOEVPR   VIA DEL PIAVE, 5                GBFRPBC                         PAITA+390911557483                                                   0000000043340499+393287645525                                                   IT64R020080464200003006318322532                    BRDDRD61D10H030X                                                                                                                  542216                                                                                                                                                                                                                                                                                                                                                                                                                                                                                                                                                                                                                                                                                                                                                                                                                                                                                                                                                                                  
2010-05-112012-04-172007-01-312013-03-022010-05-111979-02-1500000000000000700000000000000000000400000000017866036000Y R  BG2013-05-3120081178660366036             003006773551786603660369           MCHIP MAESTRO PRIV                                                                                                Zolea                           Laura                           MBECIRU     PIAZZETTA CONCORDIA, 02         IXMBAZYL KD AZBTT               BGITA03632397344                                                     00000000461198863397867812                                                      IT29G020081110000000102404768832                    ZLOLRA79B55I798F                                                                                                                  677355                                                                                                                                                                                                                                                                                                                                                                                                                                                                                                                                                                                                                                                                                                                                                                                                                                                                                                                                                                                  
2019-01-152019-01-152019-01-150001-01-012019-01-151976-05-0100000000000001350000000000000000000400000000054086417000  O  RG0001-01-0120081540864176417             2232520081540864176417             LIBRETTO                                          5hljgmx.doj5g.w2o7ou@unicreditgroup.eu                          Giorgetti                       Quintilio                       LL LIBR     VIA GIOTTO, 9                   GGBLFJ                          RGITA                                                                0000000056901406+393381522991                                                   IT67P020088448100001055181181803                    GRGQTL76E41D612S                                                                                                                  20081                                                                                                                                                                                                                                                                                                                                                                                                                                                                                                                                                                                                                                                                                                                                                                                                                                                                                                                                                                                   
2019-03-122019-03-122019-03-120001-01-012019-03-121949-09-0600000000000001350000000000000000000400000000054162640000  O  RG0001-01-0120081541626402640             2232120081541626402640             LIBRETTO                                                                                                          Stefanovich                     Alceo                           LL LIBR     STRADA BRESCIANA, 24            QQPPAVCK                        RGITA                                                                0000000057413430+393689822438                                                   IT43U020082630400001045823681800                    STFLCA49P46D676K                                                                                                                  20081                                                                                                                                                                                                                                                                                                                                                                                                                                                                                                                                                                                                                                                                                                                                                                                                                                                                                                                                                                                   
2016-12-122017-01-092016-12-122021-10-022017-01-091985-02-0100000000000000500000000000000000000000000000017090585000  O  BS2021-12-31                              009824273808093646402              VISA BUSINESS GOLD                                6akqt.6o8m8b.257uo@unicreditgroup.eu                            Rizzo                           Azeglio                         MCVBUGOLD   PIAZZA GIUSEPPE GARIBALDI, 25   JVGJE NDHEUWMHE                 NAITA                                                                0000000087912874+393313849489                                                   IT46E020085417000001000540633892                    RZZZGL85B01F722E                                                                                                                  427380                                                                                                                                                                                                                                                                                                                                                                                                                                                                                                                                                                                                                                                                                                                                                                                                                                                                                                                                                                                  
2010-07-222013-07-052010-07-222013-05-022010-08-011975-10-1000000000000000210000000000000000000000000000002419969000  O  RM2013-07-31                              007324018203957686530              UCC CLASSIC VISA DIPENDENTI                       ntdyavh.957uz24qwf.v9ae0@unicreditgroup.eu                      Stefanovich                     Vincenzo                        MCVEMCLAN   VIA FIRENZE, 93                 IKZUJZGLK                       BSITA                                                                0000000006398862+393475178721                                                   IT63W030020513700000400950116826                    STFVCN75R50E266TD                                                                                                                 401820                                                                                                                                                                                                                                                                                                                                                                                                                                                                                                                                                                                                                                                                                                                                                                                                                                                                                                                                                                                  
2002-09-122010-10-252002-09-242049-10-022002-09-121946-01-2700000000000000410000000000000000000325000000003043512000  R  RM2049-12-313002330435123335              305436746360304351233350           AMICA PLUS E/C                                    cu8skbszs9.y7i8ziklji.lpjp8yz@unicreditgroup.eu                 Folliero                        Tarquinio                       OBER051     VIA STADERA, 87                 ETTORVVLNTAV                    RMITA065212552                                                       0000000069258625+393391398244                                                   IT68Q030023924300004003085933844                    FLLTQN46A67B760A                                                                                                                  674636                                                                                                                                                                                                                                                                                                                                                                                                                                                                                                                                                                                                                                                                                                                                                                                                                                                                                                                                                                                  
1996-10-032008-04-171986-10-062049-10-021996-10-031941-02-2400000000000001422000000000000000000750000000001187245000  R  VR2049-12-3163552520554354920             020556744965205543549203           CIRRUUS OLI A BANDA                               7p9lrcoq0g.br3f38d.ynfz1nlh@unicreditgroup.eu                   Saccone                         Lino                            OBECIRX     VIA DELLE MURA GIANICOLENSI, 9  JCBIZVXEOEOIB                   VRITA0451693448                                                      00000000002685093487333612                                                      IT49U063555986000000037247021820                    SCCLNI41B24A785N                                                                                                                  674496                                                                                                                                                                                                                                                                                                                                                                                                                                                                                                                                                                                                                                                                                                                                                                                                                                                                                                                                                                                  
2007-06-182010-09-162001-07-302010-05-020001-01-011977-12-1900000000000000130000000000000000000000000000004144345000  O  VR2010-07-31                              021435463300096220754              UCC (CARIVERONA) CLASSIC MC                       edhwt064du.0kpagrx7.myb2ylw@unicreditgroup.eu                   Di Renna                        Ileana                          MCMCVPERS   VIA ADUA, 97/Z                  SBJCDJ                          VRITA                                                                0000000001913914+393475521362                                                   IT60F063551171700000169475555518                    DRNLNI77T59G919OD                                                                                                                 546330                                                                                                                                                                                                                                                                                                                                                                                                                                                                                                                                                                                                                                                                                                                                                                                                                                                                                                                                                                                  
