CARD0000000001UPDT01020010203043512                                                     5500758205024794              00000000103512342007-05-312004-11-252004-11-250001-01-01SCMCPBAMSUNICREDITCARD MASTERCARD CLASSIC                  O  000                                                  0001-01-01        410CANCELLAZIONE CARTA                               2007-05-31MIGRAZIO                         21300     0000400031796       0000000010351234000000000000000250000000000000000250000000000000000000000000000000000000000000000000000000000000000000000000000000000000000000000000000000000000000000000000000000000000000000000000000000000000000000 Antonio Beneventi                            N   125                                                                                                                           0000                                                                                                                                                                                                                                                                                                                                                                                                                                                                                                                                                                                                                                                                                                                                                                                                                                                                                                                                                                                                                                                                                     
CARD0000000001UPDT01020010203040417                                                     5526517223133353              00000000468037662010-02-282007-02-152007-02-282007-10-11MCMCPKBMSUNICREDITCARD MAST.BUSINESS ETICA                 O  000                                                  0001-01-01        410CANCELLAZIONE CARTA                               2010-02-28AUTO                             21100     0000300343739       0000000065385864000000000000000250000000000000000250000000000000000000000000000000000000000000000000000000000000000000000000000000000000000000000000000000000000000000000000000000000000000000000000000000000000000000 Quintina Bugli                               N   125                                                                                                                           0000                                                                                                                                                                                                                                                                                                                                                                                                                                                                                                                                                                                                                                                                                                                                                                                                                                                                                                                                                                                                                                                                                     
CARD0000000001UPDT020080200821137032                      20081211370327032             6773552113703270321           00000000002068602016-01-312003-02-032012-12-042012-12-04MBEFRST  MCHIP MAESTRO FIRST_                              R  000                                                  0001-01-01                                                             2016-02-01                                 02095     0000040522082       0000000000206860000000000000000250000000000000001750000000000000001500000000000000006500000000000000001500000000000000002500000000000000002000000000000000005000000000000000000000000000000000000000000000000000000000 Gigliola                                     N   101                                                                                                                           0000                                                                                                                                                                                                                                                                                                                                                                                                                                                                                                                                                                                                                                                                                                                                                                                                                                                                                                                                                                                                                                                                                     
CARD0000000001UPDT020080200811956658                                                    4594898528769434              00000000002847442018-01-312014-01-082014-01-082014-01-10MCVIN24PRVISA INFINITE                                     O  000                                                  0001-01-01        410CANCELLAZIONE CARTA                               2017-12-15AUTO                             07456     0000101079404       0000000000284744000000000000001500000000000000001500000000000000000000000000000000000000000000000000000000000000000000000000000000000000000000000000000000000000000000000000000000000000000000000000000000000000000000 Giorgio Corraretti                           N   125                                                                                                                           0000                                                                                                                                                                                                                                                                                                                                                                                                                                                                                                                                                                                                                                                                                                                                                                                                                                                                                                                                                                                                                                                                                     
CARD0000000001UPDT02008020087146381                                                     4018208057940182              00000000002847442013-09-302010-09-272010-09-272010-10-06MCVCLENPRUCC CLASSIC  E  VISA                              O  000                                                  0001-01-01        410CANCELLAZIONE CARTA                               2013-09-02AUTO                             04077     0000101079404       0000000000284744000000000000000250000000000000000250000000000000000000000000000000000000000000000000000000000000000000000000000000000000000000000000000000000000000000000000000000000000000000000000000000000000000000 Giorgio Corraretti                           N   125                                                                                                                           0000                                                                                                                                                                                                                                                                                                                                                                                                                                                                                                                                                                                                                                                                                                                                                                                                                                                                                                                                                                                                                                                                                     
CARD0000000001UPDT020080200817566102                                                    4877162435588470              00000000007057212020-09-302017-04-072017-04-032017-04-07CDVVPAYBSCARTA DI DEBITO MYPAY VPAY STOCK                  O  000                                                  0001-01-01        000                                                  0001-01-01                                 02057     0000019073177       0000000002632420000000000000002000000000000000002000000000000000004000000000000000004000000000000000002000000000000000002000000000000000004000000000000000004000000000000000001000000000000000001000000000000000000000                                              N   121                                                                                                                           0000                                                                                                                                                                                                                                                                                                                                                                                                                                                                                                                                                                                                                                                                                                                                                                                                                                                                                                                                                                                                                                                                                     
CARD0000000001UPDT020080200817866036                                                    4877168896573729              00000000017734042020-06-302017-06-012017-06-012017-06-14CDVVPAYBNCARTA DI DEBITO MYPAY VPAY                        O  000                                                  0001-01-01C041685 000                                                  0001-01-01                                 02001     0000040152240       0000000002348493000000000000002000000000000000002000000000000000004000000000000000004000000000000000002000000000000000002000000000000000004000000000000000004000000000000000001000000000000000001000000000000000000000 Alessia Bragioto                             N   121                                                                                                                           0000                                                                                                                                                                                                                                                                                                                                                                                                                                                                                                                                                                                                                                                                                                                                                                                                                                                                                                                                                                                                                                                                                     
CARD0000000001UPDT02008020087187197                                                     5264304147694554              00000000018535122013-11-302010-11-122010-11-120001-01-01MPBPMGNECGENIUS CARD NOMINATIVA                            O  000                                                  0001-01-01        410CANCELLAZIONE CARTA                               2013-10-22AUTO                             02035     0000000000000       0000000000000000000000000000000750000000000000000750000000000000010000000000000000010000000000000000003000000000000000003000000000000000010000000000000000010000000000000000000000000000000000000000000000000000000000 Alfonsino Rainesi                            N   151                                                                                                                           0000                                                                                                                                                                                                                                                                                                                                                                                                                                                                                                                                                                                                                                                                                                                                                                                                                                                                                                                                                                                                                                                                                     
CARD0000000001UPDT020080200854098242                      20081540982428242                                           00000000040209960001-01-012019-02-222019-02-222019-02-22LL LIBR  LIBRETTO                                          O  000                                                  0001-01-01                                                             0001-01-01                                 02012     0000105452881       0000000004020996000000000000000000000000000000001500000000000000000000000000000000004000000000000000000000000000000000000000000000000000000000000000000000000000000000000000000000000000000000000000000000000000000000 Baldovino                                    N   101                                                                                                                           0000                                                                                                                                                                                                                                                                                                                                                                                                                                                                                                                                                                                                                                                                                                                                                                                                                                                                                                                                                                                                                                                                                     
CARD0000000001UPDT020080200812510584                                                    5256109054781785              00000000101276342019-07-312014-07-032014-07-072014-07-12MCMCLEVPRUCC FLEXIA CLASSIC MC                             O  000                                                  0001-01-01        000                                                  0001-01-01                                 03301     0000110020316       0000000010127634000000000000000250000000000000000250000000000000002000000000000000002000000000000000000000000000000000000000000000000000000000000000000000000000000000000000000000000000000000000000000000000000000000 Assunta Cerilli                              N   125                                                                                                                           0000                                                                                                                                                                                                                                                                                                                                                                                                                                                                                                                                                                                                                                                                                                                                                                                                                                                                                                                                                                                                                                                                                     
CARD0000000001UPDT020080200810098378                                                    5526608881275527              00000000129527282014-04-302011-04-272011-04-272011-06-10MCMBUREVOMASTERCARD BUSINESS PARTNER                       O  222SMARRIMENTO                                       0001-01-01DAYANA.P410CANCELLAZIONE CARTA                               2012-09-01GECKBREV                         03842     0000041356602       0000000027699715000000000000000500000000000000000500000000000000000000000000000000000000000000000000000000000000000000000000000000000000000000000000000000000000000000000000000000000000000000000000000000000000000000 Ottavia Cremonesi                            N   125                                                                                                                           0000                                                                                                                                                                                                                                                                                                                                                                                                                                                                                                                                                                                                                                                                                                                                                                                                                                                                                                                                                                                                                                                                                     
CARD0000000001UPDT020080200810249730                                                    4063908013066774              00000000131652442014-07-312011-07-112011-07-112011-08-22MCVEMFRSNUCC FIRST VISA DIPENDENTI                         O  000                                                  0001-01-01        410CANCELLAZIONE CARTA                               2014-06-27AUTO                             00222     0000003896189       0000000013165244000000000000000500000000000000000500000000000000000000000000000000000000000000000000000000000000000000000000000000000000000000000000000000000000000000000000000000000000000000000000000000000000000000 Fulgenzia Lucchese                           N   125                                                                                                                           0000                                                                                                                                                                                                                                                                                                                                                                                                                                                                                                                                                                                                                                                                                                                                                                                                                                                                                                                                                                                                                                                                                     
CARD0000000001UPDT020080200811130269                                                    5256108361765457              00000000161219152015-09-302012-08-022012-10-012012-09-12MCMC4SIAFUCC CLASSIC MC EXSI                               O  000                                                  0001-01-01        410CANCELLAZIONE CARTA                               2015-08-03AUTO                             03001     0000003161299       0000000016121915000000000000000500000000000000000500000000000000000000000000000000000000000000000000000000000000000000000000000000000000000000000000000000000000000000000000000000000000000000000000000000000000000000 Procopio Biondini                            N   125                                                                                                                           0000                                                                                                                                                                                                                                                                                                                                                                                                                                                                                                                                                                                                                                                                                                                                                                                                                                                                                                                                                                                                                                                                                     
CARD0000000001UPDT020080200810098084                                                    4273808787952132              00000000194911472014-04-302011-04-272011-04-272011-05-06MCVBUCLASVISA BUSINESS                                     O  261BLOCCO SMARRIMENTO+RIEMISSIONE AUTOM.             0001-01-01STEFANO.410CANCELLAZIONE CARTA                               2012-07-01GECKBREV                         03089     0000030104788       0000000019600608000000000000000500000000000000000500000000000000000000000000000000000000000000000000000000000000000000000000000000000000000000000000000000000000000000000000000000000000000000000000000000000000000000 Alvise Colonna                               N   125                                                                                                                           0000                                                                                                                                                                                                                                                                                                                                                                                                                                                                                                                                                                                                                                                                                                                                                                                                                                                                                                                                                                                                                                                                                     
CARD0000000001UPDT020080200821137032                                                    5425492375967945              00000000221362662025-02-282020-02-260001-01-010001-01-01MCMCLNYPRCarta World Elite New                             S  000                                                  0001-01-01        000                                                  0001-01-01                                 17901     0000420139094       0000000022136266000000000000000250000000000000000250000000000000002000000000000000002000000000000000000000000000000000000000000000000000000000000000000000000000000000000000000000000000000000000000000000000000000000 UGO REBECCATO                                N   125                                                                                                                           0000                                                                                                                                                                                                                                                                                                                                                                                                                                                                                                                                                                                                                                                                                                                                                                                                                                                                                                                                                                                                                                                                                     
CARD0000000001UPDT020080200810752731                                                    5264304747696298              00000000395977622015-03-312012-03-022012-03-020001-01-01MPBPMGNOMGENIUS CARD NOMINATIVA                            O  000                                                  0001-01-01        410CANCELLAZIONE CARTA                               2015-03-04AUTO                             01592     0000000000000       0000000000000000000000000000000750000000000000000750000000000000010000000000000000010000000000000000003000000000000000003000000000000000010000000000000000010000000000000000000000000000000000000000000000000000000000 Guglielma Palatano                           N   151                                                                                                                           0000                                                                                                                                                                                                                                                                                                                                                                                                                                                                                                                                                                                                                                                                                                                                                                                                                                                                                                                                                                                                                                                                                     
CARD0000000001UPDT020080200821136511                                                    5425493381598047              00000000410878642024-12-312019-12-020001-01-010001-01-01MCMCLNYPRCarta World Elite New                             S  000                                                  0001-01-01        000                                                  0001-01-01                                 17901     0000420056973       0000000041087864000000000000000250000000000000000250000000000000002000000000000000002000000000000000000000000000000000000000000000000000000000000000000000000000000000000000000000000000000000000000000000000000000000 LINO MOSCHETTI                               N   125                                                                                                                           0000                                                                                                                                                                                                                                                                                                                                                                                                                                                                                                                                                                                                                                                                                                                                                                                                                                                                                                                                                                                                                                                                                     
CARD0000000001UPDT020080200812299188                                                    5422169456132465              00000000433404992017-04-302014-04-152014-04-152014-04-24MCMGOEVPRUCC FLEXIA GOLD MC                                O  000                                                  0001-01-01        410CANCELLAZIONE CARTA                               2017-04-13AUTO                             22199     0000300631831       0000000043340599000000000000000250000000000000000250000000000000003000000000000000003000000000000000000000000000000000000000000000000000000000000000000000000000000000000000000000000000000000000000000000000000000000 Guglielmo Papaleo                            N   125                                                                                                                           0000                                                                                                                                                                                                                                                                                                                                                                                                                                                                                                                                                                                                                                                                                                                                                                                                                                                                                                                                                                                                                                                                                     
CARD0000000001UPDT020080200817866036                      20081178660366036             6773551786603660369           00000000461198862013-05-312007-01-312010-05-112010-05-11MBECIRU  MCHIP MAESTRO PRIV                                R  000                                                  0001-01-01                                                             2012-04-17                                 00300     0000010240476       0000000046119886000000000000000250000000000000001500000000000000001500000000000000004000000000000000001500000000000000001500000000000000001500000000000000001500000000000000000000000000000000000000000000000000000000 Tiziana                                      N   101                                                                                                                           0000                                                                                                                                                                                                                                                                                                                                                                                                                                                                                                                                                                                                                                                                                                                                                                                                                                                                                                                                                                                                                                                                                     
CARD0000000001UPDT020080200854086417                      20081540864176417                                           00000000569014060001-01-012019-01-152019-01-152019-01-15LL LIBR  LIBRETTO                                          O  000                                                  0001-01-01                                                             0001-01-01                                 22325     0000105518114       0000000056901406000000000000000000000000000000001500000000000000000000000000000000004000000000000000000000000000000000000000000000000000000000000000000000000000000000000000000000000000000000000000000000000000000000 Aloisia                                      N   101                                                                                                                           0000                                                                                                                                                                                                                                                                                                                                                                                                                                                                                                                                                                                                                                                                                                                                                                                                                                                                                                                                                                                                                                                                                     
CARD0000000001UPDT020080200854162640                      20081541626402640                                           00000000574134300001-01-012019-03-122019-03-122019-03-12LL LIBR  LIBRETTO                                          O  000                                                  0001-01-01                                                             0001-01-01                                 22321     0000104582364       0000000057413430000000000000000000000000000000001500000000000000000000000000000000004000000000000000000000000000000000000000000000000000000000000000000000000000000000000000000000000000000000000000000000000000000000 Fausta                                       N   101                                                                                                                           0000                                                                                                                                                                                                                                                                                                                                                                                                                                                                                                                                                                                                                                                                                                                                                                                                                                                                                                                                                                                                                                                                                     
CARD0000000001UPDT020080200817090585                                                    4273808093646402              00000000879128742021-12-312016-12-122016-12-122017-01-09MCVBUGOLDVISA BUSINESS GOLD                                O  000                                                  0001-01-01        000                                                  0001-01-01                                 00982     0000100054067       0000000048715512000000000000000500000000000000000500000000000000000000000000000000000000000000000000000000000000000000000000000000000000000000000000000000000000000000000000000000000000000000000000000000000000000000 Romilda Avello                               N   125                                                                                                                           0000                                                                                                                                                                                                                                                                                                                                                                                                                                                                                                                                                                                                                                                                                                                                                                                                                                                                                                                                                                                                                                                                                     
CARD0000000001UPDT03002030022419969                                                     4018203957686530              00000000063988622013-07-312010-07-222010-07-222010-08-01MCVEMCLANUCC CLASSIC VISA DIPENDENTI                       O  000                                                  0001-01-01        410CANCELLAZIONE CARTA                               2013-07-05AUTO                             00732     0000040095018       0000000006398862000000000000000250000000000000000250000000000000000000000000000000000000000000000000000000000000000000000000000000000000000000000000000000000000000000000000000000000000000000000000000000000000000000 Bacco Settembrini                            N   125                                                                                                                           0000                                                                                                                                                                                                                                                                                                                                                                                                                                                                                                                                                                                                                                                                                                                                                                                                                                                                                                                                                                                                                                                                                     
CARD0000000001UPDT03002030023043512                       3002330435123335              6746360304351233350           00000000692586252049-12-312002-09-242002-09-122002-09-12OBER051  AMICA PLUS E/C                                    R  000                                                  0001-01-01                                                             2010-10-25                                 30543     0000400308596       0000000069258625000000000000000100000000000000000500000000000000000100000000000000003250000000000000000100000000000000000750000000000000000100000000000000000750000000000000000000000000000000000000000000000000000000 Lionello                                     N   101                                                                                                                           0000                                                                                                                                                                                                                                                                                                                                                                                                                                                                                                                                                                                                                                                                                                                                                                                                                                                                                                                                                                                                                                                                                     
CARD0000000001UPDT06355063551187245                       63552520554354920             6744965205543549203           00000000002685092049-12-311986-10-061996-10-031996-10-03OBECIRX  CIRRUUS OLI A BANDA                               R  000                                                  0001-01-01                                                             2008-04-17                                 02055     0000003724701       0000000000306478000000000000000260000000000000000500000000000000001550000000000000007500000000000000001550000000000000000780000000000000000000000000000000000780000000000000000000000000000000000000000000000000000000 Lucia                                        N   101                                                                                                                           0000                                                                                                                                                                                                                                                                                                                                                                                                                                                                                                                                                                                                                                                                                                                                                                                                                                                                                                                                                                                                                                                                                     
CARD0000000001UPDT06355063554144345                                                     5463300096220754              00000000019139142010-07-312001-07-302007-06-180001-01-01MCMCVPERSUCC (CARIVERONA) CLASSIC MC                       O  000                                                  0001-01-01        410CANCELLAZIONE CARTA                               2010-09-16AUTO                             02143     0000016947552       0000000001913914000000000000000260000000000000000260000000000000000000000000000000000000000000000000000000000000000000000000000000000000000000000000000000000000000000000000000000000000000000000000000000000000000000 Abelardo Cavaterra                           N   125                                                                                                                           0000                                                                                                                                                                                                                                                                                                                                                                                                                                                                                                                                                                                                                                                                                                                                                                                                                                                                                                                                                                                                                                                                                     
