EEIF80                                   GE2020092511363456        439782      200925113634UA               00000000000 00000000000 00000000000 00000000000 00000000000DUPL         000                                                                                                                                                               000                 000000000000000 000000000000000 000000000000000 000000000000000 0000000000000000000000000000000          N          0GEC001    000000000                                 0000000000000000000000000000000002                                                                                                              4397823534079312        0000000000000000000000000000000000000000000000000000000000                                                                                                                                                                                                                                          00000000000000000000           000 00000000000 00000000000 00000000000                                                            00000000                                                                                                                                                                                                                                                                                                                                                                                                                  0001010100000000        00000000000000 0000 2020092511363456                                       TAIL□□
EEIF80                                   GE2020092312265695        525610      200923122656UA               00000000000 00000000000 00000000000 00000000000 00000000000DUPL         000                                                                                                                                                               000                 000000000000000 000000000000000 000000000000000 000000000000000 0000000000000000000000000000000          N          0GEC001    000000000                                 0000000000000000000000000000000002                                                                                                              5256103381662503        0000000000000000000000000000000000000000000000000000000000                                                                                                                                                                                                                                          00000000000000000000           000 00000000000 00000000000 00000000000                                                            00000000                                                                                                                                                                                                                                                                                                                                                                                                                  0001010100000000        00000000000000 0000 2020092312265695                                       TAIL□□
EEIF80                                   GE2020092513363456        482498      200925133634                 00000000000 00000000000 00000000000 00000000000 00000000000AUMP         000                                                                                                                                                               000                 000000000000000 000000000000000 000000000000000 000000000210000 0009999999999990000000000000000          N          0GEC001    000000000                                 0000000000000000000000000000000002                                                                                                              4824983381676439        0000000000000000000000000000000000000000000000000000000000                                                                                                                                                                                                                                          00000000000000000000           000 00000000000 00000000000 00000000000                                                            00000000                                                                                                                                                                                                                                                                                                                                                                                                                  0001010100000000        00000000000000 0000 2020092513363456                                       TAIL□□
EEIF80                                   GE2019121109381300        439782      191211093813US               00000000000 00000000000 00000000000 00000000000 00000000000SOST         000                                                                                                                                                               000                 000000000000000 000000000000000 000000000000000 000000000000000 0000000000000000000000000000000          N          0GEC001    000000000                                 0000000000000000000000000000000002                                                                                                              4397823381598547        0000000000000000000000000000000000000000000000000000000000                                                                                                                                                                                                                                          00000000000000000000           000 00000000000 00000000000 00000000000                                                            00000000                                                                                                                                                                                                                                                                                                                                                                                                                  0001010100000000        00000000000000 0000 2019121109381300                                       TAIL□□
EEIF80                                   GE2019111511314504        439782      191115113145OA               00000000000 00000000000 00000000000 00000000000 00000000000SOST         000                                                                                                                                                               000                 000000000000000 000000000000000 000000000000000 000000000000000 0000000000000000000000000000000          N          0GEC001    000000000                                 0000000000000000000000000000000002                                                                                                              4397823381598547        0000000000000000000000000000000000000000000000000000000000                                                                                                                                                                                                                                          00000000000000000000           000 00000000000 00000000000 00000000000                                                            00000000                                                                                                                                                                                                                                                                                                                                                                                                                  0001010100000000        00000000000000 0000 2019111511314504                                       TAIL□□
EEIF80                                   GE2019100817481031        439782      191008174810UA               00000000000 00000000000 00000000000 00000000000 00000000000SOST         000                                                                                                                                                               000                 000000000000000 000000000000000 000000000000000 000000000000000 0000000000000000000000000000000          N          0GEC001    000000000                                 0000000000000000000000000000000002                                                                                                              4397823381598547        0000000000000000000000000000000000000000000000000000000000                                                                                                                                                                                                                                          00000000000000000000           000 00000000000 00000000000 00000000000                                                            00000000                                                                                                                                                                                                                                                                                                                                                                                                                  0001010100000000        00000000000000 0000 2019100817481031                                       TAIL□□
EEIF80                                   GE2019041815083246        439782      190418150832US               00000000000 00000000000 00000000000 00000000000 00000000000DUPL         000                                                                                                                                                               000                 000000000000000 000000000000000 000000000000000 000000000000000 0000000000000000000000000000000          N          0GEC001    000000000                                 0000000000000000000000000000000002                                                                                                              4397823534079312        0000000000000000000000000000000000000000000000000000000000                                                                                                                                                                                                                                          00000000000000000000           000 00000000000 00000000000 00000000000                                                            00000000                                                                                                                                                                                                                                                                                                                                                                                                                  0001010100000000        00000000000000 0000 2019041815083246                                       TAIL□□
EEIF80                                   GE2019041219552435        439782      190412195524OA               00000000000 00000000000 00000000000 00000000000 00000000000DUPL         000                                                                                                                                                               000                 000000000000000 000000000000000 000000000000000 000000000000000 0000000000000000000000000000000          N          0GEC001    000000000                                 0000000000000000000000000000000002                                                                                                              4397823534079312        0000000000000000000000000000000000000000000000000000000000                                                                                                                                                                                                                                          00000000000000000000           000 00000000000 00000000000 00000000000                                                            00000000                                                                                                                                                                                                                                                                                                                                                                                                                  0001010100000000        00000000000000 0000 2019041219552435                                       TAIL□□
EEIF80                                   GE2019041119123180        439782      190411191231UA               00000000000 00000000000 00000000000 00000000000 00000000000DUPL         000                                                                                                                                                               000                 000000000000000 000000000000000 000000000000000 000000000000000 0000000000000000000000000000000          N          0GEC001    000000000                                 0000000000000000000000000000000002                                                                                                              4397823534079312        0000000000000000000000000000000000000000000000000000000000                                                                                                                                                                                                                                          00000000000000000000           000 00000000000 00000000000 00000000000                                                            00000000                                                                                                                                                                                                                                                                                                                                                                                                                  0001010100000000        00000000000000 0000 2019041119123180                                       TAIL□□
EEIF80                                   GE2020042112393273        482498      200421123932UA               00000000000 00000000000 00000000000 00000000000 00000000000SOST         000                                                                                                                                                               000                 000000000000000 000000000000000 000000000000000 000000000000000 0000000000000000000000000000000          N          0GEC001    000000000                                 0000000000000000000000000000000002                                                                                                              4824983372040405        0000000000000000000000000000000000000000000000000000000000                                                                                                                                                                                                                                          00000000000000000000           000 00000000000 00000000000 00000000000                                                            00000000                                                                                                                                                                                                                                                                                                                                                                                                                  0001010100000000        00000000000000 0000 2020042112393273                                       TAIL□□
EEIF80                                   GE2020042114262333        482498      200421142623UA               00000000000 00000000000 00000000000 00000000000 00000000000DUPL         000                                                                                                                                                               000                 000000000000000 000000000000000 000000000000000 000000000000000 0000000000000000000000000000000          N          0GEC001    000000000                                 0000000000000000000000000000000002                                                                                                              4824983372040405        0000000000000000000000000000000000000000000000000000000000                                                                                                                                                                                                                                          00000000000000000000           000 00000000000 00000000000 00000000000                                                            00000000                                                                                                                                                                                                                                                                                                                                                                                                                  0001010100000000        00000000000000 0000 2020042114262333                                       TAIL□□
EEIF80                                   GE2020042115460573        482498      200421154605UA               00000000000 00000000000 00000000000 00000000000 00000000000DUPL         000                                                                                                                                                               000                 000000000000000 000000000000000 000000000000000 000000000000000 0000000000000000000000000000000          N          0GEC001    000000000                                 0000000000000000000000000000000002                                                                                                              4824983372040405        0000000000000000000000000000000000000000000000000000000000                                                                                                                                                                                                                                          00000000000000000000           000 00000000000 00000000000 00000000000                                                            00000000                                                                                                                                                                                                                                                                                                                                                                                                                  0001010100000000        00000000000000 0000 2020042115460573                                       TAIL□□
EEIF80                                   GE2020042116232246        482498      200421162322UA               00000000000 00000000000 00000000000 00000000000 00000000000DUPL         000                                                                                                                                                               000                 000000000000000 000000000000000 000000000000000 000000000000000 0000000000000000000000000000000          N          0GEC001    000000000                                 0000000000000000000000000000000002                                                                                                              4824983372040405        0000000000000000000000000000000000000000000000000000000000                                                                                                                                                                                                                                          00000000000000000000           000 00000000000 00000000000 00000000000                                                            00000000                                                                                                                                                                                                                                                                                                                                                                                                                  0001010100000000        00000000000000 0000 2020042116232246                                       TAIL□□